{"abi":[{"type":"constructor","inputs":[{"name":"asset_","type":"address","internalType":"contract IERC20"}],"stateMutability":"nonpayable"},{"type":"function","name":"LOCK_30_DAYS","inputs":[],"outputs":[{"name":"","type":"uint256","internalType":"uint256"}],"stateMutability":"view"},{"type":"function","name":"LOCK_60_DAYS","inputs":[],"outputs":[{"name":"","type":"uint256","internalType":"uint256"}],"stateMutability":"view"},{"type":"function","name":"LOCK_90_DAYS","inputs":[],"outputs":[{"name":"","type":"uint256","internalType":"uint256"}],"stateMutability":"view"},{"type":"function","name":"MIN_DEPOSIT","inputs":[],"outputs":[{"name":"","type":"uint256","internalType":"uint256"}],"stateMutability":"view"},{"type":"function","name":"asset","inputs":[],"outputs":[{"name":"","type":"address","internalType":"contract IERC20"}],"stateMutability":"view"},{"type":"function","name":"deposit","inputs":[{"name":"amount","type":"uint256","internalType":"uint256"},{"name":"lockSeconds","type":"uint256","internalType":"uint256"}],"outputs":[{"name":"positionId","type":"uint256","internalType":"uint256"}],"stateMutability":"nonpayable"},{"type":"function","name":"getOpenPositions","inputs":[{"name":"owner_","type":"address","internalType":"address"}],"outputs":[{"name":"","type":"tuple[]","internalType":"struct FixedVault.Position[]","components":[{"name":"amount","type":"uint128","internalType":"uint128"},{"name":"unlockAt","type":"uint64","internalType":"uint64"},{"name":"withdrawn","type":"bool","internalType":"bool"}]}],"stateMutability":"view"},{"type":"function","name":"getPosition","inputs":[{"name":"owner_","type":"address","internalType":"address"},{"name":"positionId","type":"uint256","internalType":"uint256"}],"outputs":[{"name":"","type":"tuple","internalType":"struct FixedVault.Position","components":[{"name":"amount","type":"uint128","internalType":"uint128"},{"name":"unlockAt","type":"uint64","internalType":"uint64"},{"name":"withdrawn","type":"bool","internalType":"bool"}]}],"stateMutability":"view"},{"type":"function","name":"getPositions","inputs":[{"name":"owner_","type":"address","internalType":"address"}],"outputs":[{"name":"","type":"tuple[]","internalType":"struct FixedVault.Position[]","components":[{"name":"amount","type":"uint128","internalType":"uint128"},{"name":"unlockAt","type":"uint64","internalType":"uint64"},{"name":"withdrawn","type":"bool","internalType":"bool"}]}],"stateMutability":"view"},{"type":"function","name":"positionCount","inputs":[{"name":"owner_","type":"address","internalType":"address"}],"outputs":[{"name":"","type":"uint256","internalType":"uint256"}],"stateMutability":"view"},{"type":"function","name":"totalLocked","inputs":[],"outputs":[{"name":"","type":"uint256","internalType":"uint256"}],"stateMutability":"view"},{"type":"function","name":"withdraw","inputs":[{"name":"positionId","type":"uint256","internalType":"uint256"}],"outputs":[],"stateMutability":"nonpayable"},{"type":"event","name":"PositionClosed","inputs":[{"name":"owner","type":"address","indexed":true,"internalType":"address"},{"name":"positionId","type":"uint256","indexed":true,"internalType":"uint256"},{"name":"amount","type":"uint256","indexed":false,"internalType":"uint256"}],"anonymous":false},{"type":"event","name":"PositionOpened","inputs":[{"name":"owner","type":"address","indexed":true,"internalType":"address"},{"name":"positionId","type":"uint256","indexed":true,"internalType":"uint256"},{"name":"amount","type":"uint256","indexed":false,"internalType":"uint256"},{"name":"unlockAt","type":"uint64","indexed":false,"internalType":"uint64"}],"anonymous":false},{"type":"error","name":"AlreadyWithdrawn","inputs":[{"name":"positionId","type":"uint256","internalType":"uint256"}]},{"type":"error","name":"AmountBelowMinimum","inputs":[{"name":"amount","type":"uint256","internalType":"uint256"},{"name":"minimum","type":"uint256","internalType":"uint256"}]},{"type":"error","name":"AmountTooLarge","inputs":[{"name":"amount","type":"uint256","internalType":"uint256"}]},{"type":"error","name":"InvalidLockDuration","inputs":[{"name":"lockSeconds","type":"uint256","internalType":"uint256"}]},{"type":"error","name":"NotYetUnlocked","inputs":[{"name":"unlockAt","type":"uint64","internalType":"uint64"}]},{"type":"error","name":"PositionNotFound","inputs":[{"name":"positionId","type":"uint256","internalType":"uint256"}]},{"type":"error","name":"ReentrancyGuardReentrantCall","inputs":[]},{"type":"error","name":"SafeERC20FailedOperation","inputs":[{"name":"token","type":"address","internalType":"address"}]},{"type":"error","name":"ZeroAmount","inputs":[]},{"type":"error","name":"ZeroAsset","inputs":[]}],"bytecode":{"object":"0x60a0604052348015600e575f80fd5b506040516110b73803806110b7833981016040819052602b916065565b60015f556001600160a01b038116605557604051633e6f4db960e11b815260040160405180910390fd5b6001600160a01b03166080526090565b5f602082840312156074575f80fd5b81516001600160a01b03811681146089575f80fd5b9392505050565b608051610ffa6100bd5f395f818161010a015281816103ce015281816106780152610b610152610ffa5ff3fe608060405234801561000f575f80fd5b50600436106100cf575f3560e01c8063568914121161007d578063e1e158a511610058578063e1e158a5146101eb578063e2bbb158146101f5578063e37c3a5514610208575f80fd5b806356891412146101c65780637c6e5db7146101ce578063bcde914d146101d8575f80fd5b80633adbb5af116100ad5780633adbb5af146101515780633eeb530e1461017157806342fd388014610191575f80fd5b806329cd7939146100d35780632e1a7d4d146100f057806338d52e0f14610105575b5f80fd5b6100dd624f1a0081565b6040519081526020015b60405180910390f35b6101036100fe366004610da0565b610212565b005b61012c7f000000000000000000000000000000000000000000000000000000000000000081565b60405173ffffffffffffffffffffffffffffffffffffffff90911681526020016100e7565b61016461015f366004610ddf565b61043b565b6040516100e79190610e07565b61018461017f366004610e46565b61056f565b6040516100e79190610e66565b6100dd61019f366004610e46565b73ffffffffffffffffffffffffffffffffffffffff165f9081526001602052604090205490565b6100dd610648565b6100dd62278d0081565b6101846101e6366004610e46565b6106fb565b6100dd620f424081565b6100dd610203366004610ee5565b610925565b6100dd6276a70081565b61021a610bee565b335f9081526001602052604090208054821061026a576040517ff7154807000000000000000000000000000000000000000000000000000000008152600481018390526024015b60405180910390fd5b5f81838154811061027d5761027d610f05565b5f91825260209091200180549091507801000000000000000000000000000000000000000000000000900460ff16156102e5576040517f54225c2b00000000000000000000000000000000000000000000000000000000815260048101849052602401610261565b8054700100000000000000000000000000000000900467ffffffffffffffff164210156103605780546040517fa47dd41d00000000000000000000000000000000000000000000000000000000815270010000000000000000000000000000000090910467ffffffffffffffff166004820152602401610261565b80547fffffffffffffff00ffffffffffffffffffffffffffffffffffffffffffffffff811678010000000000000000000000000000000000000000000000001782556fffffffffffffffffffffffffffffffff166103f573ffffffffffffffffffffffffffffffffffffffff7f0000000000000000000000000000000000000000000000000000000000000000163383610c2f565b604051818152849033907fc8469f8998427d0814b7efed804617bd8c43dfdfb3c6780d28a03ecf361fb6989060200160405180910390a350505061043860015f55565b50565b604080516060810182525f808252602080830182905282840182905273ffffffffffffffffffffffffffffffffffffffff8616825260019052919091205482106104b4576040517ff715480700000000000000000000000000000000000000000000000000000000815260048101839052602401610261565b73ffffffffffffffffffffffffffffffffffffffff83165f9081526001602052604090208054839081106104ea576104ea610f05565b5f9182526020918290206040805160608101825291909201546fffffffffffffffffffffffffffffffff8116825267ffffffffffffffff7001000000000000000000000000000000008204169382019390935260ff78010000000000000000000000000000000000000000000000009093049290921615159082015290505b92915050565b73ffffffffffffffffffffffffffffffffffffffff81165f908152600160209081526040808320805482518185028101850190935280835260609492939192909184015b8282101561063d575f84815260209081902060408051606081018252918501546fffffffffffffffffffffffffffffffff81168352700100000000000000000000000000000000810467ffffffffffffffff16838501527801000000000000000000000000000000000000000000000000900460ff161515908201528252600190920191016105b3565b505050509050919050565b6040517f70a082310000000000000000000000000000000000000000000000000000000081523060048201525f907f000000000000000000000000000000000000000000000000000000000000000073ffffffffffffffffffffffffffffffffffffffff16906370a0823190602401602060405180830381865afa1580156106d2573d5f803e3d5ffd5b505050506040513d601f19601f820116820180604052508101906106f69190610f32565b905090565b73ffffffffffffffffffffffffffffffffffffffff81165f9081526001602052604081208054606092805b828110156107845783818154811061074057610740610f05565b5f918252602090912001547801000000000000000000000000000000000000000000000000900460ff1661077c578161077881610f76565b9250505b600101610726565b505f8167ffffffffffffffff81111561079f5761079f610fad565b60405190808252806020026020018201604052801561080757816020015b604080516060810182525f80825260208083018290529282015282527fffffffffffffffffffffffffffffffffffffffffffffffffffffffffffffffff9092019101816107bd5790505b5090505f805b848110156109195785818154811061082757610827610f05565b5f918252602090912001547801000000000000000000000000000000000000000000000000900460ff166109115785818154811061086757610867610f05565b5f9182526020918290206040805160608101825291909201546fffffffffffffffffffffffffffffffff8116825267ffffffffffffffff7001000000000000000000000000000000008204169382019390935260ff78010000000000000000000000000000000000000000000000009093049290921615159082015283518490849081106108f7576108f7610f05565b6020026020010181905250818061090d90610f76565b9250505b60010161080d565b50909695505050505050565b5f61092e610bee565b825f03610967576040517f1f2a200500000000000000000000000000000000000000000000000000000000815260040160405180910390fd5b620f42408310156109b0576040517f30196ade00000000000000000000000000000000000000000000000000000000815260048101849052620f42406024820152604401610261565b6fffffffffffffffffffffffffffffffff8311156109fd576040517f08083b2a00000000000000000000000000000000000000000000000000000000815260048101849052602401610261565b62278d008214158015610a135750624f1a008214155b8015610a2257506276a7008214155b15610a5c576040517f46b60f8b00000000000000000000000000000000000000000000000000000000815260048101839052602401610261565b5f610a678342610fda565b335f818152600160208181526040808420805482516060810184526fffffffffffffffffffffffffffffffff808e16825267ffffffffffffffff808b16838801908152958301898152978401855593885294909620955195810180549351955115157801000000000000000000000000000000000000000000000000027fffffffffffffff00ffffffffffffffffffffffffffffffffffffffffffffffff96909316700100000000000000000000000000000000027fffffffffffffffff000000000000000000000000000000000000000000000000909416969094169590951791909117929092169190911790559350909150610b9e907f000000000000000000000000000000000000000000000000000000000000000073ffffffffffffffffffffffffffffffffffffffff16903087610cb5565b6040805185815267ffffffffffffffff83166020820152839133917f9335515dd66e08572fe32e31496124a9700ab8177e2fd28f306ea6cc89361c47910160405180910390a35061056960015f55565b60025f5403610c29576040517f3ee5aeb500000000000000000000000000000000000000000000000000000000815260040160405180910390fd5b60025f55565b60405173ffffffffffffffffffffffffffffffffffffffff838116602483015260448201839052610cb091859182169063a9059cbb906064015b604051602081830303815290604052915060e01b6020820180517bffffffffffffffffffffffffffffffffffffffffffffffffffffffff8381831617835250505050610d01565b505050565b60405173ffffffffffffffffffffffffffffffffffffffff8481166024830152838116604483015260648201839052610cfb9186918216906323b872dd90608401610c69565b50505050565b5f8060205f8451602086015f885af180610d20576040513d5f823e3d81fd5b50505f513d91508115610d37578060011415610d51565b73ffffffffffffffffffffffffffffffffffffffff84163b155b15610cfb576040517f5274afe700000000000000000000000000000000000000000000000000000000815273ffffffffffffffffffffffffffffffffffffffff85166004820152602401610261565b5f60208284031215610db0575f80fd5b5035919050565b803573ffffffffffffffffffffffffffffffffffffffff81168114610dda575f80fd5b919050565b5f8060408385031215610df0575f80fd5b610df983610db7565b946020939093013593505050565b81516fffffffffffffffffffffffffffffffff16815260208083015167ffffffffffffffff169082015260408083015115159082015260608101610569565b5f60208284031215610e56575f80fd5b610e5f82610db7565b9392505050565b602080825282518282018190525f918401906040840190835b81811015610eda57610ec483855180516fffffffffffffffffffffffffffffffff16825260208082015167ffffffffffffffff16908301526040908101511515910152565b6020939093019260609290920191600101610e7f565b509095945050505050565b5f8060408385031215610ef6575f80fd5b50508035926020909101359150565b7f4e487b71000000000000000000000000000000000000000000000000000000005f52603260045260245ffd5b5f60208284031215610f42575f80fd5b5051919050565b7f4e487b71000000000000000000000000000000000000000000000000000000005f52601160045260245ffd5b5f7fffffffffffffffffffffffffffffffffffffffffffffffffffffffffffffffff8203610fa657610fa6610f49565b5060010190565b7f4e487b71000000000000000000000000000000000000000000000000000000005f52604160045260245ffd5b8082018082111561056957610569610f4956fea164736f6c634300081a000a","linkReferences":{}},"methodIdentifiers":{"LOCK_30_DAYS()":"7c6e5db7","LOCK_60_DAYS()":"29cd7939","LOCK_90_DAYS()":"e37c3a55","MIN_DEPOSIT()":"e1e158a5","asset()":"38d52e0f","deposit(uint256,uint256)":"e2bbb158","getOpenPositions(address)":"bcde914d","getPosition(address,uint256)":"3adbb5af","getPositions(address)":"3eeb530e","positionCount(address)":"42fd3880","totalLocked()":"56891412","withdraw(uint256)":"2e1a7d4d"},"id":39}