{"abi":[{"type":"constructor","inputs":[{"name":"asset_","type":"address","internalType":"contract IERC20"},{"name":"name_","type":"string","internalType":"string"},{"name":"symbol_","type":"string","internalType":"string"}],"stateMutability":"nonpayable"},{"type":"function","name":"allowance","inputs":[{"name":"owner","type":"address","internalType":"address"},{"name":"spender","type":"address","internalType":"address"}],"outputs":[{"name":"","type":"uint256","internalType":"uint256"}],"stateMutability":"view"},{"type":"function","name":"approve","inputs":[{"name":"spender","type":"address","internalType":"address"},{"name":"value","type":"uint256","internalType":"uint256"}],"outputs":[{"name":"","type":"bool","internalType":"bool"}],"stateMutability":"nonpayable"},{"type":"function","name":"asset","inputs":[],"outputs":[{"name":"","type":"address","internalType":"address"}],"stateMutability":"view"},{"type":"function","name":"balanceOf","inputs":[{"name":"account","type":"address","internalType":"address"}],"outputs":[{"name":"","type":"uint256","internalType":"uint256"}],"stateMutability":"view"},{"type":"function","name":"convertToAssets","inputs":[{"name":"shares","type":"uint256","internalType":"uint256"}],"outputs":[{"name":"","type":"uint256","internalType":"uint256"}],"stateMutability":"view"},{"type":"function","name":"convertToShares","inputs":[{"name":"assets","type":"uint256","internalType":"uint256"}],"outputs":[{"name":"","type":"uint256","internalType":"uint256"}],"stateMutability":"view"},{"type":"function","name":"decimals","inputs":[],"outputs":[{"name":"","type":"uint8","internalType":"uint8"}],"stateMutability":"view"},{"type":"function","name":"deposit","inputs":[{"name":"assets","type":"uint256","internalType":"uint256"},{"name":"receiver","type":"address","internalType":"address"}],"outputs":[{"name":"","type":"uint256","internalType":"uint256"}],"stateMutability":"nonpayable"},{"type":"function","name":"maxDeposit","inputs":[{"name":"","type":"address","internalType":"address"}],"outputs":[{"name":"","type":"uint256","internalType":"uint256"}],"stateMutability":"view"},{"type":"function","name":"maxMint","inputs":[{"name":"","type":"address","internalType":"address"}],"outputs":[{"name":"","type":"uint256","internalType":"uint256"}],"stateMutability":"view"},{"type":"function","name":"maxRedeem","inputs":[{"name":"owner","type":"address","internalType":"address"}],"outputs":[{"name":"","type":"uint256","internalType":"uint256"}],"stateMutability":"view"},{"type":"function","name":"maxWithdraw","inputs":[{"name":"owner","type":"address","internalType":"address"}],"outputs":[{"name":"","type":"uint256","internalType":"uint256"}],"stateMutability":"view"},{"type":"function","name":"mint","inputs":[{"name":"shares","type":"uint256","internalType":"uint256"},{"name":"receiver","type":"address","internalType":"address"}],"outputs":[{"name":"","type":"uint256","internalType":"uint256"}],"stateMutability":"nonpayable"},{"type":"function","name":"name","inputs":[],"outputs":[{"name":"","type":"string","internalType":"string"}],"stateMutability":"view"},{"type":"function","name":"previewDeposit","inputs":[{"name":"assets","type":"uint256","internalType":"uint256"}],"outputs":[{"name":"","type":"uint256","internalType":"uint256"}],"stateMutability":"view"},{"type":"function","name":"previewMint","inputs":[{"name":"shares","type":"uint256","internalType":"uint256"}],"outputs":[{"name":"","type":"uint256","internalType":"uint256"}],"stateMutability":"view"},{"type":"function","name":"previewRedeem","inputs":[{"name":"shares","type":"uint256","internalType":"uint256"}],"outputs":[{"name":"","type":"uint256","internalType":"uint256"}],"stateMutability":"view"},{"type":"function","name":"previewWithdraw","inputs":[{"name":"assets","type":"uint256","internalType":"uint256"}],"outputs":[{"name":"","type":"uint256","internalType":"uint256"}],"stateMutability":"view"},{"type":"function","name":"redeem","inputs":[{"name":"shares","type":"uint256","internalType":"uint256"},{"name":"receiver","type":"address","internalType":"address"},{"name":"owner","type":"address","internalType":"address"}],"outputs":[{"name":"","type":"uint256","internalType":"uint256"}],"stateMutability":"nonpayable"},{"type":"function","name":"symbol","inputs":[],"outputs":[{"name":"","type":"string","internalType":"string"}],"stateMutability":"view"},{"type":"function","name":"totalAssets","inputs":[],"outputs":[{"name":"","type":"uint256","internalType":"uint256"}],"stateMutability":"view"},{"type":"function","name":"totalSupply","inputs":[],"outputs":[{"name":"","type":"uint256","internalType":"uint256"}],"stateMutability":"view"},{"type":"function","name":"transfer","inputs":[{"name":"to","type":"address","internalType":"address"},{"name":"value","type":"uint256","internalType":"uint256"}],"outputs":[{"name":"","type":"bool","internalType":"bool"}],"stateMutability":"nonpayable"},{"type":"function","name":"transferFrom","inputs":[{"name":"from","type":"address","internalType":"address"},{"name":"to","type":"address","internalType":"address"},{"name":"value","type":"uint256","internalType":"uint256"}],"outputs":[{"name":"","type":"bool","internalType":"bool"}],"stateMutability":"nonpayable"},{"type":"function","name":"withdraw","inputs":[{"name":"assets","type":"uint256","internalType":"uint256"},{"name":"receiver","type":"address","internalType":"address"},{"name":"owner","type":"address","internalType":"address"}],"outputs":[{"name":"","type":"uint256","internalType":"uint256"}],"stateMutability":"nonpayable"},{"type":"event","name":"Approval","inputs":[{"name":"owner","type":"address","indexed":true,"internalType":"address"},{"name":"spender","type":"address","indexed":true,"internalType":"address"},{"name":"value","type":"uint256","indexed":false,"internalType":"uint256"}],"anonymous":false},{"type":"event","name":"Deposit","inputs":[{"name":"sender","type":"address","indexed":true,"internalType":"address"},{"name":"owner","type":"address","indexed":true,"internalType":"address"},{"name":"assets","type":"uint256","indexed":false,"internalType":"uint256"},{"name":"shares","type":"uint256","indexed":false,"internalType":"uint256"}],"anonymous":false},{"type":"event","name":"Transfer","inputs":[{"name":"from","type":"address","indexed":true,"internalType":"address"},{"name":"to","type":"address","indexed":true,"internalType":"address"},{"name":"value","type":"uint256","indexed":false,"internalType":"uint256"}],"anonymous":false},{"type":"event","name":"Withdraw","inputs":[{"name":"sender","type":"address","indexed":true,"internalType":"address"},{"name":"receiver","type":"address","indexed":true,"internalType":"address"},{"name":"owner","type":"address","indexed":true,"internalType":"address"},{"name":"assets","type":"uint256","indexed":false,"internalType":"uint256"},{"name":"shares","type":"uint256","indexed":false,"internalType":"uint256"}],"anonymous":false},{"type":"error","name":"ERC20InsufficientAllowance","inputs":[{"name":"spender","type":"address","internalType":"address"},{"name":"allowance","type":"uint256","internalType":"uint256"},{"name":"needed","type":"uint256","internalType":"uint256"}]},{"type":"error","name":"ERC20InsufficientBalance","inputs":[{"name":"sender","type":"address","internalType":"address"},{"name":"balance","type":"uint256","internalType":"uint256"},{"name":"needed","type":"uint256","internalType":"uint256"}]},{"type":"error","name":"ERC20InvalidApprover","inputs":[{"name":"approver","type":"address","internalType":"address"}]},{"type":"error","name":"ERC20InvalidReceiver","inputs":[{"name":"receiver","type":"address","internalType":"address"}]},{"type":"error","name":"ERC20InvalidSender","inputs":[{"name":"sender","type":"address","internalType":"address"}]},{"type":"error","name":"ERC20InvalidSpender","inputs":[{"name":"spender","type":"address","internalType":"address"}]},{"type":"error","name":"ERC4626ExceededMaxDeposit","inputs":[{"name":"receiver","type":"address","internalType":"address"},{"name":"assets","type":"uint256","internalType":"uint256"},{"name":"max","type":"uint256","internalType":"uint256"}]},{"type":"error","name":"ERC4626ExceededMaxMint","inputs":[{"name":"receiver","type":"address","internalType":"address"},{"name":"shares","type":"uint256","internalType":"uint256"},{"name":"max","type":"uint256","internalType":"uint256"}]},{"type":"error","name":"ERC4626ExceededMaxRedeem","inputs":[{"name":"owner","type":"address","internalType":"address"},{"name":"shares","type":"uint256","internalType":"uint256"},{"name":"max","type":"uint256","internalType":"uint256"}]},{"type":"error","name":"ERC4626ExceededMaxWithdraw","inputs":[{"name":"owner","type":"address","internalType":"address"},{"name":"assets","type":"uint256","internalType":"uint256"},{"name":"max","type":"uint256","internalType":"uint256"}]},{"type":"error","name":"ReentrancyGuardReentrantCall","inputs":[]},{"type":"error","name":"SafeERC20FailedOperation","inputs":[{"name":"token","type":"address","internalType":"address"}]},{"type":"error","name":"ZeroAsset","inputs":[]}],"bytecode":{"object":"0x60c060405234801561000f575f80fd5b50604051611a15380380611a1583398101604081905261002e91610225565b828282600361003d838261032b565b50600461004a828261032b565b5050505f8061005e836100b260201b60201c565b915091508161006e576012610070565b805b60ff1660a05250506001600160a01b03908116608052600160055583166100aa57604051633e6f4db960e11b815260040160405180910390fd5b505050610412565b60408051600481526024810182526020810180516001600160e01b031663313ce56760e01b17905290515f918291829182916001600160a01b038716916100f8916103e5565b5f60405180830381855afa9150503d805f8114610130576040519150601f19603f3d011682016040523d82523d5f602084013e610135565b606091505b509150915081801561014957506020815110155b1561017c575f8180602001905181019061016391906103fb565b905060ff811161017a576001969095509350505050565b505b505f9485945092505050565b634e487b7160e01b5f52604160045260245ffd5b5f82601f8301126101ab575f80fd5b81516001600160401b038111156101c4576101c4610188565b604051601f8201601f19908116603f011681016001600160401b03811182821017156101f2576101f2610188565b604052818152838201602001851015610209575f80fd5b8160208501602083015e5f918101602001919091529392505050565b5f805f60608486031215610237575f80fd5b83516001600160a01b038116811461024d575f80fd5b60208501519093506001600160401b03811115610268575f80fd5b6102748682870161019c565b604086015190935090506001600160401b03811115610291575f80fd5b61029d8682870161019c565b9150509250925092565b600181811c908216806102bb57607f821691505b6020821081036102d957634e487b7160e01b5f52602260045260245ffd5b50919050565b601f82111561032657805f5260205f20601f840160051c810160208510156103045750805b601f840160051c820191505b81811015610323575f8155600101610310565b50505b505050565b81516001600160401b0381111561034457610344610188565b6103588161035284546102a7565b846102df565b6020601f82116001811461038a575f83156103735750848201515b5f19600385901b1c1916600184901b178455610323565b5f84815260208120601f198516915b828110156103b95787850151825560209485019460019092019101610399565b50848210156103d657868401515f19600387901b60f8161c191681555b50505050600190811b01905550565b5f82518060208501845e5f920191825250919050565b5f6020828403121561040b575f80fd5b5051919050565b60805160a0516115cd6104485f395f61057501525f81816102660152818161040101528181610d2b0152610e1101526115cd5ff3fe608060405234801561000f575f80fd5b506004361061019a575f3560e01c806370a08231116100e8578063ba08765211610093578063ce96cb771161006e578063ce96cb7714610366578063d905777e14610379578063dd62ed3e1461038c578063ef8b30f714610353575f80fd5b8063ba08765214610340578063c63d75b614610290578063c6e6f59214610353575f80fd5b8063a9059cbb116100c3578063a9059cbb14610307578063b3d7f6b91461031a578063b460af941461032d575f80fd5b806370a08231146102b757806394bf804d146102ec57806395d89b41146102ff575f80fd5b806323b872dd11610148578063402d267d11610123578063402d267d146102905780634cdad506146101ce5780636e553f65146102a4575f80fd5b806323b872dd1461021f578063313ce5671461023257806338d52e0f1461024c575f80fd5b8063095ea7b311610178578063095ea7b3146101e15780630a28a4771461020457806318160ddd14610217575f80fd5b806301e1d1141461019e57806306fdde03146101b957806307a2d13a146101ce575b5f80fd5b6101a66103d1565b6040519081526020015b60405180910390f35b6101c1610484565b6040516101b091906111d6565b6101a66101dc366004611229565b610514565b6101f46101ef366004611268565b610525565b60405190151581526020016101b0565b6101a6610212366004611229565b61053c565b6002546101a6565b6101f461022d366004611290565b610548565b61023a61056d565b60405160ff90911681526020016101b0565b60405173ffffffffffffffffffffffffffffffffffffffff7f00000000000000000000000000000000000000000000000000000000000000001681526020016101b0565b6101a661029e3660046112ca565b505f1990565b6101a66102b23660046112e3565b610599565b6101a66102c53660046112ca565b73ffffffffffffffffffffffffffffffffffffffff165f9081526020819052604090205490565b6101a66102fa3660046112e3565b6105b8565b6101c16105cb565b6101f4610315366004611268565b6105da565b6101a6610328366004611229565b6105e7565b6101a661033b36600461130d565b6105f3565b6101a661034e36600461130d565b610613565b6101a6610361366004611229565b610627565b6101a66103743660046112ca565b610632565b6101a66103873660046112ca565b610661565b6101a661039a366004611346565b73ffffffffffffffffffffffffffffffffffffffff9182165f90815260016020908152604080832093909416825291909152205490565b6040517f70a082310000000000000000000000000000000000000000000000000000000081523060048201525f907f000000000000000000000000000000000000000000000000000000000000000073ffffffffffffffffffffffffffffffffffffffff16906370a0823190602401602060405180830381865afa15801561045b573d5f803e3d5ffd5b505050506040513d601f19601f8201168201806040525081019061047f919061136e565b905090565b60606003805461049390611385565b80601f01602080910402602001604051908101604052809291908181526020018280546104bf90611385565b801561050a5780601f106104e15761010080835404028352916020019161050a565b820191905f5260205f20905b8154815290600101906020018083116104ed57829003601f168201915b5050505050905090565b5f61051f825f61068b565b92915050565b5f336105328185856106c4565b5060019392505050565b5f61051f8260016106d6565b5f33610555858285610706565b6105608585856107b9565b60019150505b9392505050565b5f61047f60067f0000000000000000000000000000000000000000000000000000000000000000611403565b5f6105a2610862565b6105ac83836108a5565b905061051f6001600555565b5f6105c1610862565b6105ac83836108c8565b60606004805461049390611385565b5f336105328185856107b9565b5f61051f82600161068b565b5f6105fc610862565b6106078484846108e3565b90506105666001600555565b5f61061c610862565b610607848484610972565b5f61051f825f6106d6565b73ffffffffffffffffffffffffffffffffffffffff81165f9081526020819052604081205461051f905f61068b565b73ffffffffffffffffffffffffffffffffffffffff81165f9081526020819052604081205461051f565b5f6105666106976103d1565b6106a290600161141c565b6106ae6006600a611512565b6002546106bb919061141c565b859190856109f8565b6106d18383836001610a3a565b505050565b5f6105666106e66006600a611512565b6002546106f3919061141c565b6106fb6103d1565b6106bb90600161141c565b73ffffffffffffffffffffffffffffffffffffffff8381165f908152600160209081526040808320938616835292905220545f1981146107b357818110156107a5576040517ffb8f41b200000000000000000000000000000000000000000000000000000000815273ffffffffffffffffffffffffffffffffffffffff8416600482015260248101829052604481018390526064015b60405180910390fd5b6107b384848484035f610a3a565b50505050565b73ffffffffffffffffffffffffffffffffffffffff8316610808576040517f96c6fd1e0000000000000000000000000000000000000000000000000000000081525f600482015260240161079c565b73ffffffffffffffffffffffffffffffffffffffff8216610857576040517fec442f050000000000000000000000000000000000000000000000000000000081525f600482015260240161079c565b6106d1838383610b7f565b60026005540361089e576040517f3ee5aeb500000000000000000000000000000000000000000000000000000000815260040160405180910390fd5b6002600555565b5f5f195f6108b285610627565b90506108c033858784610d26565b949350505050565b5f5f195f6108d5856105e7565b90506108c033858388610d26565b5f806108ee83610632565b905080851115610950576040517ffe9cceec00000000000000000000000000000000000000000000000000000000815273ffffffffffffffffffffffffffffffffffffffff84166004820152602481018690526044810182905260640161079c565b5f61095a8661053c565b90506109693386868985610dc4565b95945050505050565b5f8061097d83610661565b9050808511156109df576040517fb94abeec00000000000000000000000000000000000000000000000000000000815273ffffffffffffffffffffffffffffffffffffffff84166004820152602481018690526044810182905260640161079c565b5f6109e986610514565b9050610969338686848a610dc4565b5f610a25610a0583610ec5565b8015610a2057505f8480610a1b57610a1b611520565b868809115b151590565b610a30868686610ef1565b610969919061141c565b73ffffffffffffffffffffffffffffffffffffffff8416610a89576040517fe602df050000000000000000000000000000000000000000000000000000000081525f600482015260240161079c565b73ffffffffffffffffffffffffffffffffffffffff8316610ad8576040517f94280d620000000000000000000000000000000000000000000000000000000081525f600482015260240161079c565b73ffffffffffffffffffffffffffffffffffffffff8085165f90815260016020908152604080832093871683529290522082905580156107b3578273ffffffffffffffffffffffffffffffffffffffff168473ffffffffffffffffffffffffffffffffffffffff167f8c5be1e5ebec7d5bd14f71427d1e84f3dd0314c0f7b2291e5b200ac8c7c3b92584604051610b7191815260200190565b60405180910390a350505050565b73ffffffffffffffffffffffffffffffffffffffff8316610bb6578060025f828254610bab919061141c565b90915550610c669050565b73ffffffffffffffffffffffffffffffffffffffff83165f9081526020819052604090205481811015610c3b576040517fe450d38c00000000000000000000000000000000000000000000000000000000815273ffffffffffffffffffffffffffffffffffffffff85166004820152602481018290526044810183905260640161079c565b73ffffffffffffffffffffffffffffffffffffffff84165f9081526020819052604090209082900390555b73ffffffffffffffffffffffffffffffffffffffff8216610c8f57600280548290039055610cba565b73ffffffffffffffffffffffffffffffffffffffff82165f9081526020819052604090208054820190555b8173ffffffffffffffffffffffffffffffffffffffff168373ffffffffffffffffffffffffffffffffffffffff167fddf252ad1be2c89b69c2b068fc378daa952ba7f163c4a11628f55a4df523b3ef83604051610d1991815260200190565b60405180910390a3505050565b610d527f0000000000000000000000000000000000000000000000000000000000000000853085610fa7565b610d5c8382611030565b8273ffffffffffffffffffffffffffffffffffffffff168473ffffffffffffffffffffffffffffffffffffffff167fdcbc1c05240f31ff3ad067ef1ee35ce4997762752e3a095284754544f4c709d78484604051610b71929190918252602082015260400190565b8273ffffffffffffffffffffffffffffffffffffffff168573ffffffffffffffffffffffffffffffffffffffff1614610e0257610e02838683610706565b610e0c838261108e565b610e377f000000000000000000000000000000000000000000000000000000000000000085846110e8565b8273ffffffffffffffffffffffffffffffffffffffff168473ffffffffffffffffffffffffffffffffffffffff168673ffffffffffffffffffffffffffffffffffffffff167ffbde797d201c681b91056529119e0b02407c7bb96a4a2c75c01fc9667232c8db8585604051610eb6929190918252602082015260400190565b60405180910390a45050505050565b5f6002826003811115610eda57610eda61154d565b610ee4919061157a565b60ff166001149050919050565b5f838302815f1985870982811083820303915050805f03610f2557838281610f1b57610f1b611520565b0492505050610566565b808411610f3c57610f3c6003851502601118611126565b5f848688095f868103871696879004966002600389028118808a02820302808a02820302808a02820302808a02820302808a02820302808a02909103029181900381900460010186841190950394909402919094039290920491909117919091029150509392505050565b60405173ffffffffffffffffffffffffffffffffffffffff84811660248301528381166044830152606482018390526107b39186918216906323b872dd906084015b604051602081830303815290604052915060e01b6020820180517bffffffffffffffffffffffffffffffffffffffffffffffffffffffff8381831617835250505050611137565b73ffffffffffffffffffffffffffffffffffffffff821661107f576040517fec442f050000000000000000000000000000000000000000000000000000000081525f600482015260240161079c565b61108a5f8383610b7f565b5050565b73ffffffffffffffffffffffffffffffffffffffff82166110dd576040517f96c6fd1e0000000000000000000000000000000000000000000000000000000081525f600482015260240161079c565b61108a825f83610b7f565b60405173ffffffffffffffffffffffffffffffffffffffff8381166024830152604482018390526106d191859182169063a9059cbb90606401610fe9565b634e487b715f52806020526024601cfd5b5f8060205f8451602086015f885af180611156576040513d5f823e3d81fd5b50505f513d9150811561116d578060011415611187565b73ffffffffffffffffffffffffffffffffffffffff84163b155b156107b3576040517f5274afe700000000000000000000000000000000000000000000000000000000815273ffffffffffffffffffffffffffffffffffffffff8516600482015260240161079c565b602081525f82518060208401528060208501604085015e5f6040828501015260407fffffffffffffffffffffffffffffffffffffffffffffffffffffffffffffffe0601f83011684010191505092915050565b5f60208284031215611239575f80fd5b5035919050565b803573ffffffffffffffffffffffffffffffffffffffff81168114611263575f80fd5b919050565b5f8060408385031215611279575f80fd5b61128283611240565b946020939093013593505050565b5f805f606084860312156112a2575f80fd5b6112ab84611240565b92506112b960208501611240565b929592945050506040919091013590565b5f602082840312156112da575f80fd5b61056682611240565b5f80604083850312156112f4575f80fd5b8235915061130460208401611240565b90509250929050565b5f805f6060848603121561131f575f80fd5b8335925061132f60208501611240565b915061133d60408501611240565b90509250925092565b5f8060408385031215611357575f80fd5b61136083611240565b915061130460208401611240565b5f6020828403121561137e575f80fd5b5051919050565b600181811c9082168061139957607f821691505b6020821081036113d0577f4e487b71000000000000000000000000000000000000000000000000000000005f52602260045260245ffd5b50919050565b7f4e487b71000000000000000000000000000000000000000000000000000000005f52601160045260245ffd5b60ff818116838216019081111561051f5761051f6113d6565b8082018082111561051f5761051f6113d6565b6001815b600184111561146a5780850481111561144e5761144e6113d6565b600184161561145c57908102905b60019390931c928002611433565b935093915050565b5f826114805750600161051f565b8161148c57505f61051f565b81600181146114a257600281146114ac576114c8565b600191505061051f565b60ff8411156114bd576114bd6113d6565b50506001821b61051f565b5060208310610133831016604e8410600b84101617156114eb575081810a61051f565b6114f75f19848461142f565b805f190482111561150a5761150a6113d6565b029392505050565b5f61056660ff841683611472565b7f4e487b71000000000000000000000000000000000000000000000000000000005f52601260045260245ffd5b7f4e487b71000000000000000000000000000000000000000000000000000000005f52602160045260245ffd5b5f60ff8316806115b1577f4e487b71000000000000000000000000000000000000000000000000000000005f52601260045260245ffd5b8060ff8416069150509291505056fea164736f6c634300081a000a","linkReferences":{}},"methodIdentifiers":{"allowance(address,address)":"dd62ed3e","approve(address,uint256)":"095ea7b3","asset()":"38d52e0f","balanceOf(address)":"70a08231","convertToAssets(uint256)":"07a2d13a","convertToShares(uint256)":"c6e6f592","decimals()":"313ce567","deposit(uint256,address)":"6e553f65","maxDeposit(address)":"402d267d","maxMint(address)":"c63d75b6","maxRedeem(address)":"d905777e","maxWithdraw(address)":"ce96cb77","mint(uint256,address)":"94bf804d","name()":"06fdde03","previewDeposit(uint256)":"ef8b30f7","previewMint(uint256)":"b3d7f6b9","previewRedeem(uint256)":"4cdad506","previewWithdraw(uint256)":"0a28a477","redeem(uint256,address,address)":"ba087652","symbol()":"95d89b41","totalAssets()":"01e1d114","totalSupply()":"18160ddd","transfer(address,uint256)":"a9059cbb","transferFrom(address,address,uint256)":"23b872dd","withdraw(uint256,address,address)":"b460af94"},"id":40}