{"abi":[{"type":"constructor","inputs":[{"name":"asset_","type":"address","internalType":"contract IERC20"}],"stateMutability":"nonpayable"},{"type":"function","name":"MAX_MEMO_BYTES","inputs":[],"outputs":[{"name":"","type":"uint256","internalType":"uint256"}],"stateMutability":"view"},{"type":"function","name":"asset","inputs":[],"outputs":[{"name":"","type":"address","internalType":"contract IERC20"}],"stateMutability":"view"},{"type":"function","name":"send","inputs":[{"name":"to","type":"address","internalType":"address"},{"name":"amount","type":"uint256","internalType":"uint256"},{"name":"memo","type":"string","internalType":"string"}],"outputs":[],"stateMutability":"nonpayable"},{"type":"event","name":"Sent","inputs":[{"name":"from","type":"address","indexed":true,"internalType":"address"},{"name":"to","type":"address","indexed":true,"internalType":"address"},{"name":"amount","type":"uint256","indexed":false,"internalType":"uint256"},{"name":"memo","type":"string","indexed":false,"internalType":"string"}],"anonymous":false},{"type":"error","name":"InvalidRecipient","inputs":[]},{"type":"error","name":"MemoTooLong","inputs":[{"name":"length","type":"uint256","internalType":"uint256"}]},{"type":"error","name":"ReentrancyGuardReentrantCall","inputs":[]},{"type":"error","name":"SafeERC20FailedOperation","inputs":[{"name":"token","type":"address","internalType":"address"}]},{"type":"error","name":"SelfTransfer","inputs":[]},{"type":"error","name":"ZeroAddress","inputs":[]},{"type":"error","name":"ZeroAmount","inputs":[]},{"type":"error","name":"ZeroAsset","inputs":[]}],"bytecode":{"object":"0x60a0604052348015600e575f80fd5b50604051610665380380610665833981016040819052602b916065565b60015f556001600160a01b038116605557604051633e6f4db960e11b815260040160405180910390fd5b6001600160a01b03166080526090565b5f602082840312156074575f80fd5b81516001600160a01b03811681146089575f80fd5b9392505050565b6080516105b06100b55f395f818160480152818161018501526102a101526105b05ff3fe608060405234801561000f575f80fd5b506004361061003f575f3560e01c806338d52e0f1461004357806388ba1c2014610094578063f49bb76b146100ab575b5f80fd5b61006a7f000000000000000000000000000000000000000000000000000000000000000081565b60405173ffffffffffffffffffffffffffffffffffffffff90911681526020015b60405180910390f35b61009d61010081565b60405190815260200161008b565b6100be6100b93660046104b3565b6100c0565b005b6100c8610341565b73ffffffffffffffffffffffffffffffffffffffff8416610115576040517fd92e233d00000000000000000000000000000000000000000000000000000000815260040160405180910390fd5b3373ffffffffffffffffffffffffffffffffffffffff851603610164576040517f4d9ecd9100000000000000000000000000000000000000000000000000000000815260040160405180910390fd5b73ffffffffffffffffffffffffffffffffffffffff84163014806101d357507f000000000000000000000000000000000000000000000000000000000000000073ffffffffffffffffffffffffffffffffffffffff168473ffffffffffffffffffffffffffffffffffffffff16145b1561020a576040517f9c8d2cd200000000000000000000000000000000000000000000000000000000815260040160405180910390fd5b825f03610243576040517f1f2a200500000000000000000000000000000000000000000000000000000000815260040160405180910390fd5b610100811115610287576040517fb15ee66a000000000000000000000000000000000000000000000000000000008152600481018290526024015b60405180910390fd5b6102c973ffffffffffffffffffffffffffffffffffffffff7f000000000000000000000000000000000000000000000000000000000000000016338686610382565b8373ffffffffffffffffffffffffffffffffffffffff163373ffffffffffffffffffffffffffffffffffffffff167f02605d54d67ccbe0064a8ce6c39465102dd02b85ad8709391c5953a27083964b85858560405161032a93929190610550565b60405180910390a361033b60015f55565b50505050565b60025f540361037c576040517f3ee5aeb500000000000000000000000000000000000000000000000000000000815260040160405180910390fd5b60025f55565b6040805173ffffffffffffffffffffffffffffffffffffffff8581166024830152841660448201526064808201849052825180830390910181526084909101909152602080820180517bffffffffffffffffffffffffffffffffffffffffffffffffffffffff167f23b872dd00000000000000000000000000000000000000000000000000000000178152825161033b93889390925f9283929183919082885af180610433576040513d5f823e3d81fd5b50505f513d9150811561044a578060011415610464565b73ffffffffffffffffffffffffffffffffffffffff84163b155b1561033b576040517f5274afe700000000000000000000000000000000000000000000000000000000815273ffffffffffffffffffffffffffffffffffffffff8516600482015260240161027e565b5f805f80606085870312156104c6575f80fd5b843573ffffffffffffffffffffffffffffffffffffffff811681146104e9575f80fd5b935060208501359250604085013567ffffffffffffffff81111561050b575f80fd5b8501601f8101871361051b575f80fd5b803567ffffffffffffffff811115610531575f80fd5b876020828401011115610542575f80fd5b949793965060200194505050565b83815260406020820152816040820152818360608301375f818301606090810191909152601f9092017fffffffffffffffffffffffffffffffffffffffffffffffffffffffffffffffe01601019291505056fea164736f6c634300081a000a","linkReferences":{}},"methodIdentifiers":{"MAX_MEMO_BYTES()":"88ba1c20","asset()":"38d52e0f","send(address,uint256,string)":"f49bb76b"},"id":41}